{
  "_format": "hh-sol-artifact-1",
  "contractName": "WavePortal",
  "sourceName": "contracts/WavePortal.sol",
  "abi": [
    {
      "inputs": [],
      "stateMutability": "nonpayable",
      "type": "constructor"
    },
    {
      "anonymous": false,
      "inputs": [
        {
          "indexed": false,
          "internalType": "address",
          "name": "_sender",
          "type": "address"
        },
        {
          "indexed": false,
          "internalType": "uint256",
          "name": "_timestamp",
          "type": "uint256"
        },
        {
          "indexed": false,
          "internalType": "string",
          "name": "_message",
          "type": "string"
        }
      ],
      "name": "NewWave",
      "type": "event"
    },
    {
      "inputs": [],
      "name": "getAllWaves",
      "outputs": [
        {
          "components": [
            {
              "internalType": "address",
              "name": "waver",
              "type": "address"
            },
            {
              "internalType": "string",
              "name": "message",
              "type": "string"
            },
            {
              "internalType": "uint256",
              "name": "timestamp",
              "type": "uint256"
            }
          ],
          "internalType": "struct WavePortal.Wave[]",
          "name": "",
          "type": "tuple[]"
        }
      ],
      "stateMutability": "view",
      "type": "function"
    },
    {
      "inputs": [],
      "name": "getTotalWaves",
      "outputs": [
        {
          "internalType": "uint256",
          "name": "",
          "type": "uint256"
        }
      ],
      "stateMutability": "view",
      "type": "function"
    },
    {
      "inputs": [
        {
          "internalType": "address",
          "name": "id",
          "type": "address"
        }
      ],
      "name": "getWavesByAddr",
      "outputs": [
        {
          "internalType": "uint256",
          "name": "",
          "type": "uint256"
        }
      ],
      "stateMutability": "view",
      "type": "function"
    },
    {
      "inputs": [
        {
          "internalType": "string",
          "name": "_message",
          "type": "string"
        }
      ],
      "name": "wave",
      "outputs": [],
      "stateMutability": "nonpayable",
      "type": "function"
    }
  ],
  "bytecode": "0x60806040523480156200001157600080fd5b50620000416040518060600160405280602c815260200162000e3c602c91396200004760201b620004371760201c565b620001db565b620000e7816040516024016200005e919062000154565b6040516020818303038152906040527f41304fac000000000000000000000000000000000000000000000000000000007bffffffffffffffffffffffffffffffffffffffffffffffffffffffff19166020820180517bffffffffffffffffffffffffffffffffffffffffffffffffffffffff8381831617835250505050620000ea60201b60201c565b50565b60008151905060006a636f6e736f6c652e6c6f679050602083016000808483855afa5050505050565b6000620001208262000178565b6200012c818562000183565b93506200013e81856020860162000194565b6200014981620001ca565b840191505092915050565b6000602082019050818103600083015262000170818462000113565b905092915050565b600081519050919050565b600082825260208201905092915050565b60005b83811015620001b457808201518184015260208101905062000197565b83811115620001c4576000848401525b50505050565b6000601f19601f8301169050919050565b610c5180620001eb6000396000f3fe608060405234801561001057600080fd5b506004361061004c5760003560e01c80630b69f3e214610051578063449d46c0146100815780639a2cdc081461009d578063bd43a908146100bb575b600080fd5b61006b600480360381019061006691906106b5565b6100d9565b6040516100789190610958565b60405180910390f35b61009b600480360381019061009691906106de565b610122565b005b6100a561029b565b6040516100b29190610958565b60405180910390f35b6100c36102e6565b6040516100d091906108e4565b60405180910390f35b6000600160008373ffffffffffffffffffffffffffffffffffffffff1673ffffffffffffffffffffffffffffffffffffffff168152602001908152602001600020549050919050565b60016000808282546101349190610a2f565b9250508190555060018060003373ffffffffffffffffffffffffffffffffffffffff1673ffffffffffffffffffffffffffffffffffffffff168152602001908152602001600020600082825461018a9190610a2f565b92505081905550600260405180606001604052803373ffffffffffffffffffffffffffffffffffffffff16815260200183815260200142815250908060018154018082558091505060019003906000526020600020906003020160009091909190915060008201518160000160006101000a81548173ffffffffffffffffffffffffffffffffffffffff021916908373ffffffffffffffffffffffffffffffffffffffff1602179055506020820151816001019080519060200190610250929190610595565b506040820151816002015550507f5f7e16dc676677766a70e9c5628aa6c54ddb8b6e5188e2ae1e1f17f1ffbea716334283604051610290939291906108a6565b60405180910390a150565b60006102de6040518060400160405280601781526020017f5765206861766520256420746f74616c207761766573210000000000000000008152506000546104d0565b600054905090565b60606002805480602002602001604051908101604052809291908181526020016000905b8282101561042e57838290600052602060002090600302016040518060600160405290816000820160009054906101000a900473ffffffffffffffffffffffffffffffffffffffff1673ffffffffffffffffffffffffffffffffffffffff1673ffffffffffffffffffffffffffffffffffffffff16815260200160018201805461039390610b03565b80601f01602080910402602001604051908101604052809291908181526020018280546103bf90610b03565b801561040c5780601f106103e15761010080835404028352916020019161040c565b820191906000526020600020905b8154815290600101906020018083116103ef57829003601f168201915b505050505081526020016002820154815250508152602001906001019061030a565b50505050905090565b6104cd8160405160240161044b9190610906565b6040516020818303038152906040527f41304fac000000000000000000000000000000000000000000000000000000007bffffffffffffffffffffffffffffffffffffffffffffffffffffffff19166020820180517bffffffffffffffffffffffffffffffffffffffffffffffffffffffff838183161783525050505061056c565b50565b61056882826040516024016104e6929190610928565b6040516020818303038152906040527f9710a9d0000000000000000000000000000000000000000000000000000000007bffffffffffffffffffffffffffffffffffffffffffffffffffffffff19166020820180517bffffffffffffffffffffffffffffffffffffffffffffffffffffffff838183161783525050505061056c565b5050565b60008151905060006a636f6e736f6c652e6c6f679050602083016000808483855afa5050505050565b8280546105a190610b03565b90600052602060002090601f0160209004810192826105c3576000855561060a565b82601f106105dc57805160ff191683800117855561060a565b8280016001018555821561060a579182015b828111156106095782518255916020019190600101906105ee565b5b509050610617919061061b565b5090565b5b8082111561063457600081600090555060010161061c565b5090565b600061064b61064684610998565b610973565b90508281526020810184848401111561066357600080fd5b61066e848285610ac1565b509392505050565b60008135905061068581610c04565b92915050565b600082601f83011261069c57600080fd5b81356106ac848260208601610638565b91505092915050565b6000602082840312156106c757600080fd5b60006106d584828501610676565b91505092915050565b6000602082840312156106f057600080fd5b600082013567ffffffffffffffff81111561070a57600080fd5b6107168482850161068b565b91505092915050565b600061072b8383610838565b905092915050565b61073c81610a85565b82525050565b61074b81610a85565b82525050565b600061075c826109d9565b61076681856109fc565b935083602082028501610778856109c9565b8060005b858110156107b45784840389528151610795858261071f565b94506107a0836109ef565b925060208a0199505060018101905061077c565b50829750879550505050505092915050565b60006107d1826109e4565b6107db8185610a0d565b93506107eb818560208601610ad0565b6107f481610bf3565b840191505092915050565b600061080a826109e4565b6108148185610a1e565b9350610824818560208601610ad0565b61082d81610bf3565b840191505092915050565b60006060830160008301516108506000860182610733565b506020830151848203602086015261086882826107c6565b915050604083015161087d6040860182610888565b508091505092915050565b61089181610ab7565b82525050565b6108a081610ab7565b82525050565b60006060820190506108bb6000830186610742565b6108c86020830185610897565b81810360408301526108da81846107ff565b9050949350505050565b600060208201905081810360008301526108fe8184610751565b905092915050565b6000602082019050818103600083015261092081846107ff565b905092915050565b6000604082019050818103600083015261094281856107ff565b90506109516020830184610897565b9392505050565b600060208201905061096d6000830184610897565b92915050565b600061097d61098e565b90506109898282610b35565b919050565b6000604051905090565b600067ffffffffffffffff8211156109b3576109b2610bc4565b5b6109bc82610bf3565b9050602081019050919050565b6000819050602082019050919050565b600081519050919050565b600081519050919050565b6000602082019050919050565b600082825260208201905092915050565b600082825260208201905092915050565b600082825260208201905092915050565b6000610a3a82610ab7565b9150610a4583610ab7565b9250827fffffffffffffffffffffffffffffffffffffffffffffffffffffffffffffffff03821115610a7a57610a79610b66565b5b828201905092915050565b6000610a9082610a97565b9050919050565b600073ffffffffffffffffffffffffffffffffffffffff82169050919050565b6000819050919050565b82818337600083830152505050565b60005b83811015610aee578082015181840152602081019050610ad3565b83811115610afd576000848401525b50505050565b60006002820490506001821680610b1b57607f821691505b60208210811415610b2f57610b2e610b95565b5b50919050565b610b3e82610bf3565b810181811067ffffffffffffffff82111715610b5d57610b5c610bc4565b5b80604052505050565b7f4e487b7100000000000000000000000000000000000000000000000000000000600052601160045260246000fd5b7f4e487b7100000000000000000000000000000000000000000000000000000000600052602260045260246000fd5b7f4e487b7100000000000000000000000000000000000000000000000000000000600052604160045260246000fd5b6000601f19601f8301169050919050565b610c0d81610a85565b8114610c1857600080fd5b5056fea2646970667358221220633fbb6f39f6245a863a66fd33b7be4b069e09547a3eb5ae3faeabd6a5ec18d864736f6c634300080400334865792c2049276d206120736d61727420636f6e747261637420616e64204920616d206465706c6f79656421",
  "linkReferences": {},
  "deployedLinkReferences": {}
}